{
  "contractName": "Hotel",
  "abi": [
    {
      "constant": true,
      "inputs": [
        {
          "name": "",
          "type": "uint256"
        }
      ],
      "name": "rooms",
      "outputs": [
        {
          "name": "id",
          "type": "uint256"
        },
        {
          "name": "name",
          "type": "string"
        },
        {
          "name": "hotel_name",
          "type": "string"
        },
        {
          "name": "price",
          "type": "uint256"
        },
        {
          "name": "status",
          "type": "string"
        }
      ],
      "payable": false,
      "stateMutability": "view",
      "type": "function"
    },
    {
      "constant": true,
      "inputs": [],
      "name": "roomsCount",
      "outputs": [
        {
          "name": "",
          "type": "uint256"
        }
      ],
      "payable": false,
      "stateMutability": "view",
      "type": "function"
    },
    {
      "inputs": [],
      "payable": false,
      "stateMutability": "nonpayable",
      "type": "constructor"
    },
    {
      "constant": false,
      "inputs": [
        {
          "name": "_roomId",
          "type": "uint256"
        }
      ],
      "name": "bookRoom",
      "outputs": [],
      "payable": true,
      "stateMutability": "payable",
      "type": "function"
    },
    {
      "constant": true,
      "inputs": [
        {
          "name": "a",
          "type": "string"
        },
        {
          "name": "b",
          "type": "string"
        }
      ],
      "name": "compareStrings",
      "outputs": [
        {
          "name": "",
          "type": "bool"
        }
      ],
      "payable": false,
      "stateMutability": "view",
      "type": "function"
    }
  ],
  "bytecode": "0x608060405234801561001057600080fd5b5033600260006101000a81548173ffffffffffffffffffffffffffffffffffffffff021916908373ffffffffffffffffffffffffffffffffffffffff16021790555061009f6040805190810160405280600681526020017f526f6f6d2031000000000000000000000000000000000000000000000000000081525061013e640100000000026401000000009004565b6100ec6040805190810160405280600681526020017f526f6f6d2032000000000000000000000000000000000000000000000000000081525061013e640100000000026401000000009004565b6101396040805190810160405280600681526020017f526f6f6d2033000000000000000000000000000000000000000000000000000081525061013e640100000000026401000000009004565b610316565b60016000815480929190600101919050555060a06040519081016040528060015481526020018281526020016040805190810160405280600781526020017f486f74656c2031000000000000000000000000000000000000000000000000008152508152602001670de0b6b3a764000081526020016040805190810160405280600981526020017f617661696c61626c6500000000000000000000000000000000000000000000008152508152506000806001548152602001908152602001600020600082015181600001556020820151816001019080519060200190610226929190610271565b506040820151816002019080519060200190610243929190610271565b5060608201518160030155608082015181600401908051906020019061026a929190610271565b5090505050565b828054600181600116156101000203166002900490600052602060002090601f016020900481019282601f106102b257805160ff19168380011785556102e0565b828001600101855582156102e0579182015b828111156102df5782518255916020019190600101906102c4565b5b5090506102ed91906102f1565b5090565b61031391905b8082111561030f5760008160009055506001016102f7565b5090565b90565b6108a8806103256000396000f300608060405260043610610062576000357c0100000000000000000000000000000000000000000000000000000000900463ffffffff1680631bae0ac81461006757806341b82f3f146101f35780635f49d3d81461021e578063bed34bba1461023e575b600080fd5b34801561007357600080fd5b5061009260048036038101908080359060200190929190505050610305565b60405180868152602001806020018060200185815260200180602001848103845288818151815260200191508051906020019080838360005b838110156100e65780820151818401526020810190506100cb565b50505050905090810190601f1680156101135780820380516001836020036101000a031916815260200191505b50848103835287818151815260200191508051906020019080838360005b8381101561014c578082015181840152602081019050610131565b50505050905090810190601f1680156101795780820380516001836020036101000a031916815260200191505b50848103825285818151815260200191508051906020019080838360005b838110156101b2578082015181840152602081019050610197565b50505050905090810190601f1680156101df5780820380516001836020036101000a031916815260200191505b509850505050505050505060405180910390f35b3480156101ff57600080fd5b50610208610503565b6040518082815260200191505060405180910390f35b61023c60048036038101908080359060200190929190505050610509565b005b34801561024a57600080fd5b506102eb600480360381019080803590602001908201803590602001908080601f0160208091040260200160405190810160405280939291908181526020018383808284378201915050505050509192919290803590602001908201803590602001908080601f01602080910402602001604051908101604052809392919081815260200183838082843782019150505050505091929192905050506106fe565b604051808215151515815260200191505060405180910390f35b6000602052806000526040600020600091509050806000015490806001018054600181600116156101000203166002900480601f0160208091040260200160405190810160405280929190818152602001828054600181600116156101000203166002900480156103b75780601f1061038c576101008083540402835291602001916103b7565b820191906000526020600020905b81548152906001019060200180831161039a57829003601f168201915b505050505090806002018054600181600116156101000203166002900480601f0160208091040260200160405190810160405280929190818152602001828054600181600116156101000203166002900480156104555780601f1061042a57610100808354040283529160200191610455565b820191906000526020600020905b81548152906001019060200180831161043857829003601f168201915b505050505090806003015490806004018054600181600116156101000203166002900480601f0160208091040260200160405190810160405280929190818152602001828054600181600116156101000203166002900480156104f95780601f106104ce576101008083540402835291602001916104f9565b820191906000526020600020905b8154815290600101906020018083116104dc57829003601f168201915b5050505050905085565b60015481565b60008111801561051b57506001548111155b151561052657600080fd5b6106126000808381526020019081526020016000206004018054600181600116156101000203166002900480601f0160208091040260200160405190810160405280929190818152602001828054600181600116156101000203166002900480156105d25780601f106105a7576101008083540402835291602001916105d2565b820191906000526020600020905b8154815290600101906020018083116105b557829003601f168201915b50505050506040805190810160405280600981526020017f617661696c61626c6500000000000000000000000000000000000000000000008152506106fe565b151561061d57600080fd5b670de0b6b3a76400003414151561063357600080fd5b600260009054906101000a900473ffffffffffffffffffffffffffffffffffffffff1673ffffffffffffffffffffffffffffffffffffffff166108fc349081150290604051600060405180830381858888f1935050505015801561069b573d6000803e3d6000fd5b506040805190810160405280600d81526020017f4e6f7420617661696c61626c650000000000000000000000000000000000000081525060008083815260200190815260200160002060040190805190602001906106fa9291906107d7565b5050565b6000816040518082805190602001908083835b6020831015156107365780518252602082019150602081019050602083039250610711565b6001836020036101000a038019825116818451168082178552505050505050905001915050604051809103902060001916836040518082805190602001908083835b60208310151561079d5780518252602082019150602081019050602083039250610778565b6001836020036101000a03801982511681845116808217855250505050505090500191505060405180910390206000191614905092915050565b828054600181600116156101000203166002900490600052602060002090601f016020900481019282601f1061081857805160ff1916838001178555610846565b82800160010185558215610846579182015b8281111561084557825182559160200191906001019061082a565b5b5090506108539190610857565b5090565b61087991905b8082111561087557600081600090555060010161085d565b5090565b905600a165627a7a7230582075c84e4d48288ec7b8c466734ac6570efb49e082606ac33f8ca349eff095edba0029",
  "source": "pragma solidity ^0.4.2;\n\n/**\n * The Hotel contract does this and that...\n */\ncontract Hotel {\n\n    struct Room {\n\n        uint id;\n        string name;\n        string hotel_name;\n        uint price;\n        string status;\n    }\n\n    // mapping acts as a associative array of key => value , here key is unsigned \n    // int and value is structure\n    mapping (uint => Room) public rooms;\n    \n    // Store hotel count - we cannot iterate or find size in mapping\n    uint public roomsCount;\n\n    // Amount is send to owners address , owner will auto set to the deployed one\n    address owner;\n    // Constructor called when contract is deployed or migrated\n    function Hotel () public {\n\n        // Set the contract creater as the owner\n        owner = msg.sender;\n        \n        addRoom(\"Room 1\");\n        addRoom(\"Room 2\");\n        addRoom(\"Room 3\");\n    }\n\n    function addRoom(string _name) private {\n\n        roomsCount++;\n        rooms[roomsCount] = Room(roomsCount,_name,'Hotel 1',1 ether,'available');\n    }\n\n    function bookRoom(uint _roomId) payable public {\n\n        // Check that the room is a valid\n        require (_roomId > 0 && _roomId <= roomsCount);\n\n        // Check if room is available\n        require (compareStrings(rooms[_roomId].status,\"available\"));\n\n        // Check if amount is equal to the price of the room\n        if(msg.value != 1000000000000000000)\n        {\n            // Throw exception\n            throw;\n        }\n        \n        owner.transfer(msg.value);\n        // change the status of the room\n        rooms[_roomId].status = \"Not available\";\n    }\n\n    function compareStrings (string a, string b) view returns (bool){\n       return keccak256(a) == keccak256(b);\n   }   \n}",
  "sourcePath": "/var/www/html/blockchain/ethereum_voting_dapp/hotel-booking/contracts/Hotel.sol",
  "compiler": {
    "name": "solc",
    "version": "0.4.24+commit.e67f0147.Emscripten.clang"
  },
  "schemaVersion": "2.0.1",
  "updatedAt": "2018-10-06T06:20:46.323Z"
}